:030000000208C231
:0C08C200787FE4F6D8FD75817B020909FF
:1007930000564F5C575158045A53556156603162A5
:1007A30040095D1423161228192A432F3F052B4CA9
:1007B30025071C361739201B100B0F383B3A154100
:1007C30044260D273049081E373D22290E2D344576
:1007D3001A1F332E35F321F418F5115024425452C5
:1007E300635B5EE90C5FEA1D0AEBF23C06ED7613F0
:1007F3003EEFF0592C004E635F576258045D4A4B3D
:1008030055565431594009601423161228192A43A6
:100813002F3F052B4C25071C361739201B100B0FB8
:10082300383B3A154144260D273049081E373D22EF
:10083300290E2D34451A1F332E35522151185011CC
:100843004F24424D5A5B5E61E90C53EA1D0AEBECFF
:100853003C06EDEE133EEFF05C2C004E635F5762F7
:1008630058045D4A4B5556543159400960142316B8
:100873001228192A432F3F052B4C25071C361739FD
:10088300201B100B0F383B3A154144260D273049E6
:10089300081E373D22290E2D34451A1F332E35529B
:1008A30021511850114F24424D5A5B5E61E90C539C
:0F08B300EA1D0AEBEC3C06EDEE133EEFF05C2C79
:10094E002033430000000000000000000000000003
:10095E000000000000000000000000000000000089
:10096E000000000000000000000000000000000079
:10097E00000000000000203308000000000000000E
:10098E000000000000000000000000000000000059
:10099E000000000000000000000000000000000049
:1009AE00000000000000000000000000083B0000F6
:0609BE0000000000000033
:090A73007F047EF8DEFEDFFA00CC
:010A7C002257
:100A2F00EFD39400400B7E667D03DDFEDEFA1F8060
:010A3F00EFC7
:010A40002293
:080A7D007FF97E11DEFEDFFAB5
:010A8500224E
:0D0A65007F0D7EF77D8EDDFEDEFADFF600F0
:010A72002261
:100003007580FF7590FF75A0FFC2A5E580B4FF065C
:1000130030A70320A6497580FF7590FF75A0FFC226
:10002300A5120A73E580B4FF0630A70320A630208B
:1000330081037544012082037545012083037546BE
:100043000120840375470120860375480120870337
:1000530075490120A703754A0120A603754B017555
:1000630080FF7590FF75A0FFC2A4E580B4FF063042
:10007300A70320A6557580FF7590FF75A0FFC2A446
:10008300120A73E580B4FF0630A70320A63C208044
:1000930003754C01208103754D01208203754E01C8
:1000A300208303754F012084037550012085037558
:1000B300510120860375520120870375530120A740
:1000C3000375540120A6037555017580FF7590FFD4
:1000D30075A0FFC2A3E580B4FF0630A70320A65591
:1000E3007580FF7590FF75A0FFC2A3120A73E580A8
:1000F300B4FF0630A70320A63C20800375560120D9
:1001030081037557012082037558012083037559B4
:1001130001208403755A01208503755B0120860342
:10012300755C01208703755D0120A703755E0120BF
:10013300A603755F017580FF7590FF75A0FFC2A2CE
:10014300E580B4FF0630A70320A6557580FF7590A0
:10015300FF75A0FFC2A2120A73E580B4FF0630A7A1
:100163000320A63C20800375600120810375610193
:100173002082037562012083037563012084037564
:100183006401208503756501208603756601208758
:100193000375670120A70375680120A6037569012C
:1001A3007580FF7590FF75A0FFC2A1E580B4FF06BF
:1001B30030A70320A64F7580FF7590FF75A0FFC27F
:1001C300A1120A73E580B4FF0630A70320A63620E8
:1001D3008003756A01208103756B01208203756CAE
:1001E30001208403756D01208503756E012086034C
:1001F300756F0120870375700120A70375710120B6
:10020300A6037572017580FF7590FF75A0FFC2A0EC
:10021300E580B4FF0630A70320A6557580FF7590CF
:10022300FF75A0FFC2A0120A73E580B4FF0630A7D2
:100233000320A63C2080037573012081037574019C
:1002430020820375750120830375090120840375DA
:100253000A01208503750B01208603750C01208795
:1002630003750D0120A703750E0120A603750F0169
:100273007580FF7590FF75A0FFC290E580B4FF06FF
:1002830030A70320A6557580FF7590FF75A0FFC2A8
:1002930090120A73E580B4FF0630A70320A63C2022
:1002A30080037510012081037511012082037512EB
:1002B3000120830375130120840375140120850332
:1002C3007515012086037516012087037517012014
:1002D300A70375180120A6037519017580FF759092
:1002E300FF75A0FFC291E580B4FF0630A70320A6E7
:1002F300557580FF7590FF75A0FFC291120A73E5D3
:1003030080B4FF0630A70320A63C208003751A01A2
:10031300208103751B01208203751C012083037553
:100323001D01208403751E01208503751F0120868E
:100333000375200120870375210120A7037522017E
:1003430020A6037523017580FF7590FF75A0FFC27A
:1003530092E580B4FF0630A70320A6497580FF7598
:1003630090FF75A0FFC292120A73E580B4FF0630B6
:10037300A70320A63020800375240120810375255F
:10038300012082037526012083037527012084033E
:1003930075280120870375290120A703752A0120E9
:1003A300A603752B017580FF7590FF75A0FFC2939F
:1003B300E580B4FF0630A70320A62B7580FF759058
:1003C300FF75A0FFC293120A73E580B4FF0630A73E
:1003D3000320A612208603752C0120A703752D0187
:1003E30020A603752E017580FF7590FF75A0FFC2CF
:1003F30094E580B4FF0630A70320A6317580FF750E
:1004030090FF75A0FFC294120A73E580B4FF063013
:10041300A70320A618208403752F01208503756B7D
:100423000120A70375310120A6037532017580FFF2
:100433007590FF75A0FFC295E580B4FF0630A70352
:1004430020A6317580FF7590FF75A0FFC295120A33
:1004530073E580B4FF0630A70320A6182082037536
:10046300330120830375340120A70375350120A6CA
:10047300037536017580FF7590FF75A0FFC296E581
:1004830080B4FF0630A70320A6317580FF7590FF67
:1004930075A0FFC296120A73E580B4FF0630A70366
:1004A30020A61820800375370120810375380120A9
:0C04B300A70375390120A603753A012249
:100A1300E4FF74432FF8E4F674082FF8E4F60FBFED
:0B0A230033F07F08783BE4F608DFFCAE
:010A2E0022A5
:100A4100758920759840758DFD858D8BE4F587D26C
:020A51008E22F3
:080A86008F993099FDC29922FD
:0609F2008B798A7A897BF3
:1009F800E4FEAB79AA7AA97B8E827583001209C5B9
:0B0A0800FF120A860EBE08EA020A7305
:100A5300E4FFEF90079393B4E901220FBF65F37F9F
:010A63000092
:010A6400226F
:010A8E002245
:010A8F002244
:010A90002243
:010A91002242
:010A92002241
:1004BF00E4F576F577F578120A65120A41120A13F8
:1004CF00120A538F78120A1312000374432578F817
:1004DF00E66003020632F57674432576F8E670037C
:1004EF00020585E576900793932416B40C005064AB
:1004FF0090050D75F003A4C58325F0C58373020520
:10050F003102053602053B02054002054502054A48
:10051F0002054F02055402055702055A02055D02F6
:10052F000560433B08804F433B01804A433B1080AB
:10053F0045433B048040433B40803B433B02803676
:10054F00433B20803102074002074502074A02075A
:10055F004F020754E5426003020784757702743B2C
:10056F002577F8E67009E57690079393F6800705EF
:10057F0077E577B408E874082576F8E67003020685
:10058F0023E5769007C5932416B40C0050649005AC
:10059F00AB75F003A4C58325F0C583730205CF02A5
:1005AF0005D40205D90205DE0205E30205E80205BE
:1005BF00ED0205F20205F50205F80205FB0205FE44
:1005CF00433B08804F433B01804A433B10804543E8
:1005DF003B048040433B40803B433B028036433BE0
:1005EF0020803102074002074502074A02074F02E7
:1005FF000754E5426003020784757702743B257741
:10060F00F8E67009E5769007C593F680070577E55C
:10061F0077B408E80576E576C3943350030204E710
:10062F00020784E4F57674432576F8E67003020634
:10063F00D3E576900793932416B40C00506490067C
:10064F005B75F003A4C58325F0C5837302067F0293
:10065F00068402068902068E020693020698020697
:10066F009D0206A20206A50206A80206AB0206AE6E
:10067F00433B08804F433B01804A433B1080454337
:10068F003B048040433B40803B433B028036433B2F
:10069F0020803102074002074502074A02074F0236
:1006AF000754E5426003020784757702743B257790
:1006BF00F8E67009E57690085D93F680070577E513
:1006CF0077B408E874082576F8E67003020778E532
:1006DF00769007C5932416B40C00506E9006F975EA
:1006EF00F003A4C58325F0C5837302071D020722FB
:1006FF0002072702072C02073102073602073B02C7
:10070F00074002074502074A02074F020754433BBF
:10071F00088056433B018051433B10804C433B04C0
:10072F008047433B408042433B02803D433B208018
:10073F0038120A8E803F120A8F803A120A90803543
:10074F00120A918030120A92802BE542702775773A
:10075F0002743B2577F8E67009E57690088F93F6DB
:10076F0080070577E577B408E80576E576C3943317
:10077F0050030206357B007A00793B1209F2120A08
:04078F00130204D479
:1008CE000204BFE493A3F8E493A34003F68001F27D
:1008DE0008DFF48029E493A3F85407240CC8C3332B
:1008EE00C4540F4420C8834004F456800146F6DFFA
:1008FE00E4800B010204081020408090094EE47E33
:10090E00019360BCA3FF543F30E509541FFEE493EE
:10091E00A360010ECF54C025E060A840B8E493A3B5
:10092E00FAE493A3F8E493A3C8C582C8CAC583CAE0
:10093E00F0A3C8C582C8CAC583CADFE9DEE780BE98
:0109C4000032
:1009C500BB010CE58229F582E5833AF583E02250E7
:1009D50006E92582F8E622BBFE06E92582F8E22231
:0D09E500E58229F582E5833AF583E493224B
:00000001FF
