:030000000208F6FD
:0C08F600787FE4F6D8FD75817B02093D97
:1007C70000564F5C575158045A5355615660316271
:1007D70040095D1423161228192A432F3F052B4C75
:1007E70025071C361739201B100B0F383B3A1541CC
:1007F70044260D273049081E373D22290E2D344542
:100807001A1F332E35F321F418F511502442545290
:10081700635B5EE90C5FEA1D0AEBF23C06ED7613BB
:100827003EEFF0592C004E635F576258045D4A4B08
:1008370055565431594009601423161228192A4372
:100847002F3F052B4C25071C361739201B100B0F84
:10085700383B3A154144260D273049081E373D22BB
:10086700290E2D34451A1F332E3552215118501198
:100877004F24424D5A5B5E61E90C53EA1D0AEBECCB
:100887003C06EDEE133EEFF05C2C004E635F5762C3
:1008970058045D4A4B555654315940096014231684
:1008A7001228192A432F3F052B4C25071C361739C9
:1008B700201B100B0F38817F154144260D27304927
:1008C700081E373D22290E2D34451A1F332E355267
:1008D70021511850114F24424D5A5B5E61E90C5368
:0F08E700EA1D0AEBEC8006EDEE133EEFF05C2C01
:1009820020334300000000000000000000000000CF
:100992000000000000000000000000000000000055
:1009A2000000000000000000000000000000000045
:1009B20000000000000020330800000000000000DA
:1009C2000000000000000000000000000000000025
:1009D2000000000000000000000000000000000015
:1009E200000000000000000000000000083B0000C2
:0609F200000000000000FF
:090AA7007F047EF8DEFEDFFA0098
:010AB0002223
:100A6300EFD39400400B7E667D03DDFEDEFA1F802C
:010A7300EF93
:010A7400225F
:080AB1007FF97E11DEFEDFFA81
:010AB900221A
:0D0A99007F0D7EF77D8EDDFEDEFADFF600BC
:010AA600222D
:100003007580FF7590FF75A0FFC2A5E580B4FF065C
:1000130030A70320A6497580FF7590FF75A0FFC226
:10002300A5120AA7E580B4FF0630A70320A6302057
:1000330081037544012082037545012083037546BE
:100043000120840375470120860375480120870337
:1000530075490120A703754A0120A603754B017555
:1000630080FF7590FF75A0FFC2A4E580B4FF063042
:10007300A70320A6557580FF7590FF75A0FFC2A446
:10008300120AA7E580B4FF0630A70320A63C208010
:1000930003754C01208103754D01208203754E01C8
:1000A300208303754F012084037550012085037558
:1000B300510120860375520120870375530120A740
:1000C3000375540120A6037555017580FF7590FFD4
:1000D30075A0FFC2A3E580B4FF0630A70320A65591
:1000E3007580FF7590FF75A0FFC2A3120AA7E58074
:1000F300B4FF0630A70320A63C20800375560120D9
:1001030081037557012082037558012083037559B4
:1001130001208403755A01208503755B0120860342
:10012300755C01208703755D0120A703755E0120BF
:10013300A603755F017580FF7590FF75A0FFC2A2CE
:10014300E580B4FF0630A70320A6557580FF7590A0
:10015300FF75A0FFC2A2120AA7E580B4FF0630A76D
:100163000320A63C20800375600120810375610193
:100173002082037562012083037563012084037564
:100183006401208503756501208603756601208758
:100193000375670120A70375680120A6037569012C
:1001A3007580FF7590FF75A0FFC2A1E580B4FF06BF
:1001B30030A70320A64F7580FF7590FF75A0FFC27F
:1001C300A1120AA7E580B4FF0630A70320A63620B4
:1001D3008003756A01208103756B01208203756CAE
:1001E30001208403756D01208503756E012086034C
:1001F300756F0120870375700120A70375710120B6
:10020300A6037572017580FF7590FF75A0FFC2A0EC
:10021300E580B4FF0630A70320A6557580FF7590CF
:10022300FF75A0FFC2A0120AA7E580B4FF0630A79E
:100233000320A63C2080037573012081037574019C
:1002430020820375750120830375090120840375DA
:100253000A01208503750B01208603750C01208795
:1002630003750D0120A703750E0120A603750F0169
:100273007580FF7590FF75A0FFC290E580B4FF06FF
:1002830030A70320A6557580FF7590FF75A0FFC2A8
:1002930090120AA7E580B4FF0630A70320A63C20EE
:1002A30080037510012081037511012082037512EB
:1002B3000120830375130120840375140120850332
:1002C3007515012086037516012087037517012014
:1002D300A70375180120A6037519017580FF759092
:1002E300FF75A0FFC291E580B4FF0630A70320A6E7
:1002F300557580FF7590FF75A0FFC291120AA7E59F
:1003030080B4FF0630A70320A63C208003751A01A2
:10031300208103751B01208203751C012083037553
:100323001D01208403751E01208503751F0120868E
:100333000375200120870375210120A7037522017E
:1003430020A6037523017580FF7590FF75A0FFC27A
:1003530092E580B4FF0630A70320A6497580FF7598
:1003630090FF75A0FFC292120AA7E580B4FF063082
:10037300A70320A63020800375240120810375255F
:10038300012082037526012083037527012084033E
:1003930075280120870375290120A703752A0120E9
:1003A300A603752B017580FF7590FF75A0FFC2939F
:1003B300E580B4FF0630A70320A62B7580FF759058
:1003C300FF75A0FFC293120AA7E580B4FF0630A70A
:1003D3000320A612208603752C0120A703752D0187
:1003E30020A603752E017580FF7590FF75A0FFC2CF
:1003F30094E580B4FF0630A70320A6317580FF750E
:1004030090FF75A0FFC294120AA7E580B4FF0630DF
:10041300A70320A618208403752F01208503756B7D
:100423000120A70375310120A6037532017580FFF2
:100433007590FF75A0FFC295E580B4FF0630A70352
:1004430020A6317580FF7590FF75A0FFC295120A33
:10045300A7E580B4FF0630A70320A6182082037502
:10046300330120830375340120A70375350120A6CA
:10047300037536017580FF7590FF75A0FFC296E581
:1004830080B4FF0630A70320A6317580FF7590FF67
:1004930075A0FFC296120AA7E580B4FF0630A70332
:1004A30020A61820800375370120810375380120A9
:0C04B300A70375390120A603753A012249
:100A4700E4FF74432FF8E4F674082FF8E4F60FBFB9
:0B0A570033F07F08783BE4F608DFFC7A
:010A62002271
:100A7500758920759840758DFD858D8BE4F587D238
:020A85008E22BF
:080ABA008F993099FDC29922C9
:060A26008B798A7A897BBE
:100A2C00E4FEAB79AA7AA97B8E827583001209F950
:0B0A3C00FF120ABA0EBE08EA020AA769
:100A8700E4FFEF9007C793B4E901220FBF65F37F37
:010A9700005E
:010A9800223B
:010AC2002211
:010AC3002210
:010AC400220F
:010AC500220E
:010AC600220D
:1004BF00E4F576F577F578120A99120A75120A475C
:1004CF00120A878F78120A4712000374D62578F81C
:1004DF00E6600302064CF57674432576F8E6700362
:1004EF00020592E5769008919364E97003020592F4
:1004FF00E5769007C7932416B40C00506490051A44
:10050F0075F003A4C58325F0C5837302053E02056C
:10051F004302054802054D02055202055702055CCC
:10052F0002056102056402056702056A02056D4353
:10053F003B08804F433B01804A433B108045433B80
:10054F00048040433B40803B433B028036433B208B
:10055F00803102077402077902077E0207830207C0
:10056F0088E54260030207B8757702743B2577F878
:10057F00E67009E5769007C793F680070577E5776C
:10058F00B408E874082576F8E6700302063DE576B0
:10059F009008C39364E9700302063DE5769007F96E
:1005AF00932416B40C0050649005C575F003A4C5D0
:1005BF008325F0C583730205E90205EE0205F302F8
:1005CF0005F80205FD02060202060702060C0206E6
:1005DF000F020612020615020618433B08804F430E
:1005EF003B01804A433B108045433B048040433BE3
:1005FF0040803B433B028036433B208031020774EF
:10060F0002077902077E020783020788E54260032B
:10061F000207B8757702743B2577F8E67009E5761F
:10062F009007F993F680070577E577B408E8057624
:10063F00E576C3943350030204E70207B8E4F57676
:10064F0074432576F8E670030206FAE57690089172
:10065F009364E970030206FAE5769007C7932416B0
:10066F00B40C00506490068275F003A4C58325F086
:10067F00C583730206A60206AB0206B00206B502D8
:10068F0006BA0206BF0206C40206C90206CC02065B
:10069F00CF0206D20206D5433B08804F433B018071
:1006AF004A433B108045433B048040433B40803BE3
:1006BF00433B028036433B208031020774020779A7
:1006CF0002077E020783020788E54260030207B82C
:1006DF00757702743B2577F8E67009E576900891F7
:1006EF0093F680070577E577B408E874082576F860
:1006FF00E670030207ACE5769008C39364E97003D4
:10070F000207ACE5769007F9932416B40C00506EEF
:10071F0090072D75F003A4C58325F0C583730207D9
:10072F005102075602075B02076002076502076A5C
:10073F0002076F02077402077902077E020783021E
:10074F000788433B088056433B018051433B108051
:10075F004C433B048047433B408042433B02803D38
:10076F00433B208038120AC2803F120AC3803A12DC
:10077F000AC48035120AC58030120AC6802BE542A2
:10078F007027757702743B2577F8E67009E5769048
:10079F0008C393F680070577E577B408E80576E593
:1007AF0076C39433500302064F7B007A00793B12D5
:0807BF000A26120A470204D4C5
:100902000204BFE493A3F8E493A34003F68001F248
:1009120008DFF48029E493A3F85407240CC8C333F6
:10092200C4540F4420C8834004F456800146F6DFC5
:10093200E4800B0102040810204080900982E47ECA
:10094200019360BCA3FF543F30E509541FFEE493BA
:10095200A360010ECF54C025E060A840B8E493A381
:10096200FAE493A3F8E493A3C8C582C8CAC583CAAC
:10097200F0A3C8C582C8CAC583CADFE9DEE780BE64
:0109F80000FE
:1009F900BB010CE58229F582E5833AF583E02250B3
:100A090006E92582F8E622BBFE06E92582F8E222FC
:0D0A1900E58229F582E5833AF583E4932216
:00000001FF
